:060000000A128A1110280B
:10000800FE00030E83160313AD000A08AE007F0836
:10001800AF000A128A15A82D0A128A11132883160E
:1000280003130A128A11F4270A128A11B300B001C5
:10003800B101B20183120313EF0183010A128A117D
:10004800EB2F831203133D088039C2004208C70012
:100058003D08C2004207C3004308CD00BC1F352835
:10006800362837284D144D0803193B283C284B28BF
:100078004D0A031D4028412849280030BD000030A2
:10008800BC000030BB000030BA00BC175328003059
:10009800BD000030BC000030BB000030BA00410891
:1000A8008039C2004208C7064108C2004207C3009F
:1000B8004308CC00C01F6128622863284C144C08F0
:1000C80003196728682877284C0A031D6C286D28AF
:1000D80075280030C1000030C0000030BF0000307B
:1000E800BE00C0177F280030C1000030C0000030BB
:1000F800BF000030BE004C080319832884288928D3
:100108004D08031D8828892892280030BD0000303A
:10011800BC000030BB000030BA00852B3A08C20092
:100128004208F00040080A128A1535250A128A1179
:10013800710883120313D3007008D2005208C2005A
:10014800C301C401C5014508CB004408CA004308DF
:10015800C9004208C8005308C200C301C401C50150
:100168004508D1004408D0004308CF004208CE001B
:100178003B08C2004208F0003F080A128A153525DC
:100188000A128A11710883120313D3007008D2006F
:100198005208C200C301C401C5014208C807430888
:1001A80003110318013E0319DA28C907440803118B
:1001B8000318013E0319E128CA074508031103186B
:1001C800013E0319E828CB075308C200C301C40144
:1001D800C5014208CE07430803110318013E03195D
:1001E800F628CF07440803110318013E0319FD2818
:1001F800D007450803110318013E03190429D10744
:100208003C08C2004208F0003E080A128A1535254B
:100218000A128A11710883120313D3007008D200DE
:100228005208C200C301C401C5014208C8074308F7
:1002380003110318013E03192229C90744080311B1
:100248000318013E03192929CA0745080311031891
:10025800013E03193029CB075308C200C301C4016A
:10026800C5014208CE07430803110318013E0319CC
:100278003E29CF07440803110318013E03194529F5
:10028800D007450803110318013E03194C29D1076B
:100298000830C2000310C80DC90DCA0DCB0DC20B22
:1002A8004E293B08C2004208F0003E080A128A158F
:1002B80035250A128A11710883120313D3007008B6
:1002C800D2005208C2005308C300C401C501420845
:1002D800C807430803110318013E03197429C90705
:1002E800440803110318013E03197B29CA0745086E
:1002F80003110318013E03198229CB073A08C200EB
:100308004208F0003F080A128A1535250A128A1198
:10031800710883120313D3007008D2005208C20078
:100328005308C300C401C5014208C80743080311A4
:100338000318013E0319A129C9074408031103182A
:10034800013E0319A829CA07450803110318013EED
:100358000319AF29CB070830C2000310C80DC90D17
:10036800CA0DCB0DC20BB1293A08C2004208F000F1
:100378003E080A128A1535250A128A117108831255
:100388000313D3007008D2005208C2005308C300F8
:10039800C401C5014208C807430803110318013EF8
:1003A8000319D729C907440803110318013E031983
:1003B800DE29CA07450803110318013E0319E52978
:1003C800CB073B08C2004208F00040080A128A1511
:1003D80035250A128A11710883120313D300700895
:1003E800D2005208C2005308C300C401C501420824
:1003F800CE07430803110318013E0319042ACF0747
:10040800440803110318013E03190B2AD0074508B5
:1004180003110318013E0319122AD1073C08C20030
:100428004208F0003F080A128A1535250A128A1177
:10043800710883120313D3007008D2005208C20057
:100448005308C300C401C5014208CE07430803117D
:100458000318013E0319312ACF0744080311031872
:10046800013E0319382AD007450803110318013E35
:1004780003193F2AD1073C08C2004208F00040088F
:100488000A128A1535250A128A1171088312031374
:10049800D3007008D2005208C2005308C300C40138
:1004A800C50108300310C20DC30DC40DC50DFF3EB4
:1004B800031D562A4208CE07430803110318013EBC
:1004C8000319672ACF07440803110318013E0319CB
:1004D8006E2AD007450803110318013E0319752A2F
:1004E800D1074808C2004908C3004A08C4004B089D
:1004F800C50018300310C50CC40CC30CC20CFF3E59
:10050800031D7E2A4208CE07430803110318013E43
:1005180003198F2ACF07440803110318013E031952
:10052800962AD007450803110318013E03199D2A8E
:10053800D1070830C2000310C80DC90DCA0DCB0D74
:10054800C20B9F2A4D084C07C200C301C30D4208C5
:10055800823ED20043080318013EFF3ED300D12A51
:100568000130C2000310CE0DCF0DD00DD10DC20B3E
:10057800B62ACB1FC02AC12AC22A4E140130C20093
:100588000310C80DC90DCA0DCB0DC20BC42AFF300C
:10059800D2070318D30AFF30D307D01FD42AD52A8D
:1005A800B42ACC01CB1FD92ADA2AF62AFF3048050B
:1005B800C200FF304905C300FF304A05C4007F3040
:1005C8004B05C50045084404430442040319ED2AB9
:1005D800EE2AF12ACC01CC0AF62A4E1CF42AF52A76
:1005E800F62AEE2A4C080319FA2AFB2A2C2B01308A
:1005F800CE07003003180130CF0700300318013050
:10060800D007003003180130D107511C0C2B0D2BDB
:100618002C2B4E08C2004F08C3005008C4005108D4
:10062800C5000130C600450DC50CC40CC30CC20C76
:10063800C60B172B4508D1004408D0004308CF004B
:100648004208CE000130D2070318D30A0030D3077E
:100658005308803AFF0080307F02031D352BFF309E
:100668005202031C382B392B442B7F30831203137F
:10067800D1008030D0000030CF000030CE00792B80
:10068800831203135308803AFF0080307F02031D52
:100698004F2B013052020318522B532B5F2B003083
:1006A80083120313D1000030D0000030CF00003097
:1006B800CE00C701792B831203135208C2004208E7
:1006C800CD00FF30CE05FF30CF057F30D00500309C
:1006D800D1054D1C702B712B722BD0174D08C20001
:1006E8000310420CC3004308D1004708C200420867
:1006F800D1045108BD005008BC004F08BB004E088B
:10070800BA0008008312031357088039DC005C081C
:10071800E4005708DC005C07DD005D08E600D61F32
:10072800962B972B982B6614660803199C2B9D2BE8
:10073800AD2B660A031DA12BA22BAA2B0030D700D4
:100748000030D6000030D5000030D400D617D701CD
:10075800B52B0030D7000030D6000030D50000306F
:10076800D4005B088039DC005C08E5006508640695
:100778000319BF2BC02BC12B64175B08DC005C0777
:10078800DD005D08E500DA1FCA2BCB2BCC2B6514E6
:1007980065080319D02BD12BE12B650A031DD52B36
:1007A800D62BDE2B0030DB000030DA000030D90019
:1007B8000030D800DA17DB01E92B0030DB0000300D
:1007C800DA000030D9000030D80066086502031846
:1007D800EE2BEF2B332C641FF22BF32BF72B8030EF
:1007E800DC005C08E4066608DC005C08E7006508D5
:1007F800DC005C08E6006708DC005C08E5005408DB
:10080800DC005C08E7005808DC005C08D4006708D6
:10081800DC005C08D8005508DC005C08E7005908D3
:10082800DC005C08D5006708DC005C08D9005608C5
:10083800DC005C08E7005A08DC005C08D6006708A2
:10084800DC005C08DA005708DC005C08E7005B089D
:10085800DC005C08D7006708DC005C08DB00E70107
:100868006508DC00DD015D08DF0066085C02DE006B
:10087800031CDF035F08803AFF0080307F02031DFE
:10088800472C1A305E02031C4A2C4B2C882C8312EE
:1008980003135708560455045404031D542C562CAE
:1008A8000130572C0030DC005C08E7000030D7002E
:1008B8000030D6000030D5000030D4006508DC00D8
:1008C8005C08E600902C671C6A2C6B2C742C67085B
:1008D800DC0003105C0C0138DD005D08E700762CB5
:1008E8000310E70C541C792C7A2C7B2CE717013069
:1008F800DC00570DD70CD60CD50CD40CDC0B7D2C9A
:100908000130DC005C08E607831203136508660201
:10091800031C8F2C902C672C641B932C942CDF2C9D
:100928006608031D982C992CA22C0030D7000030A3
:10093800D6000030D5000030D4000D2E5808D4075A
:10094800590803110318013E0319AB2CD5075A089F
:1009580003110318013E0319B22CD6075B080311D3
:100968000318013E0319B92CD707571CBC2CBD2C02
:10097800932D671CC02CC12CCA2C6708DC000310FF
:100988005C0C0138DD005D08E700CC2C0310E70C97
:10099800541CCF2CD02CD12CE7170130DC00570D7C
:1009A800D70CD60CD50CD40CDC0BD32C0130DC00C6
:1009B8005C08E607932D5708803AFF005B08803AE9
:1009C8007F02031DF12C5A085602031DF12C590809
:1009D8005502031DF12C580854020318F42CF52C69
:1009E8004D2DFF30DC00FF30DD00FF30DE00FF3032
:1009F800DF005808E0005908E1005A08E2005B08E7
:100A0800E3005408E0025508031C550F0C2D0D2D6A
:100A1800E1025608031C560F122D132DE202570847
:100A2800031C570F182D192DE3026008DC07610815
:100A38000318610F202D212DDD0762080318620FAE
:100A4800262D272DDE0763080318630ADF075F08D2
:100A5800D7005E08D6005D08D5005C08D400803059
:100A6800DC005C08E406E709E70A6708031D3D2D7A
:100A78003E2D5B2D0130D407003003180130D50717
:100A8800003003180130D607003003180130D707AB
:100A98005B2D5808D4025908031C590FD5025A086F
:100AA800031C5A0FD6025B08031C5B0FD7025708BA
:100AB800560455045404031D622D632D8F2D6708B9
:100AC800031D672D682D8F2D0030D7000030D6000C
:100AD8000030D5000030D4000D2E0130DC000310AA
:100AE800D40DD50DD60DD70DDC0B732DE71F7D2D3D
:100AF8007E2D7F2D5414671C822D832D862D031483
:100B0800E70D882D0310E70D660803198C2D8D2D30
:100B18008F2D0130E602D61F922D932D712DE50100
:100B2800E71F972D982DA62D67087F3903199D2D4E
:100B38009E2DA12DE501E50AA62D541CA42DA52D59
:100B4800A62D9E2D65080319AA2DAB2DDF2D01308A
:100B5800D407003003180130D507003003180130DE
:100B6800D607003003180130D707571CBC2DBD2D00
:100B7800DF2D5408DC005508DD005608DE00570854
:100B8800DF000130E0005F0DDF0CDE0CDD0CDC0C5B
:100B9800E00BC72D5F08D7005E08D6005D08D500BA
:100BA8005C08D400660A0319DA2DDB2DDF2D01302D
:100BB800DC005C08E607660A0319E32DE42DE92D3D
:100BC8006608031DE82DE92DF72D0030D700003009
:100BD800D6000030D5000030D4006608031DF52D7E
:100BE800F62DF72DE401661CFA2DFB2DFD2DD617E9
:100BF800012E7F30DC005C08D6056608DC00031097
:100C08005C0CDD005D08D700E41F0B2E0C2E0D2EAA
:100C1800D71708008312031327088039A80028086B
:100C2800B1002708A8002807A9002908B800A61FAE
:100C38001E2E1F2E202E381438080319242E252E78
:100C4800352E380A031D292E2A2E322E0030A700F1
:100C58000030A6000030A5000030A400A617A701A8
:100C68003D2E0030A7000030A6000030A50000305F
:100C7800A40023088039A8002808B1062308A80082
:100C88002807A9002908B900A21F4B2E4C2E4D2E6B
:100C9800391439080319512E522E622E390A031DB0
:100CA800562E572E5F2E0030A3000030A2000030D1
:100CB800A1000030A000A217A3016A2E0030A300F3
:100CC8000030A2000030A1000030A0002308220458
:100CD80021042004031D712E722E8B2E0030A700D4
:100CE8000030A6000030A5000030A4008030A60423
:100CF8007F30A7043108A8002808A7042708A30004
:100D08002608A2002508A1002408A000EA2F380818
:100D1800031D8F2E902E992E0030A3000030A200C4
:100D28000030A1000030A000EA2F3808A800A9016F
:100D38002908AB0039082802AA00031CAB032A08BB
:100D48007F3EB2002B080318013E003EB30027087F
:100D5800B0002608AF002508AE002408AD0000301A
:100D6800A7000030A6000030A5000030A400003025
:100D7800B7000030B6000030B5000030B400B9014B
:100D88000F2F39080319C92ECA2EEA2E0130A800E0
:100D98000310AD0DAE0DAF0DB00DA80BCC2E01306C
:100DA800A8000310A40DA50DA60DA70DA80BD52E00
:100DB800B71FDF2EE02EE12E24140130A800031007
:100DC800B40DB50DB60DB70DA80BE32E23083002F0
:100DD800031DF82E22082F02031DF82E21082E02CB
:100DE800031DF82E20082D02031CFB2EFC2E0B2FB2
:100DF80037172008AD022108031C210FAE02220874
:100E0800031C220FAF022308031C230FB00201307A
:100E1800A8002808B9071A303902031C142F152F07
:100E2800C52E30082F042E042D0403191C2F1D2F46
:100E38003C2F34143C2F0130A8000310A40DA50D3D
:100E4800A60DA70DA80B212FB71F2B2F2C2F2D2F49
:100E580024140130A8000310B40DB50DB60DB70D5C
:100E6800A80B2F2FFF30B2070318B30AFF30B307C0
:100E7800A61F3F2F402F1F2FB901B71F442F452F03
:100E8800612FFF303405A800FF303505A900FF3079
:100E98003605AA007F303705AB002B082A04290441
:100EA80028040319582F592F5C2FB901B90A612F4B
:100EB800241C5F2F602F612F592F39080319652FC4
:100EC800662F972F0130A407003003180130A507BB
:100ED800003003180130A607003003180130A707B7
:100EE800271C772F782F972F2408A8002508A900FA
:100EF8002608AA002708AB000130AC002B0DAB0C6C
:100F0800AA0CA90CA80CAC0B822F2B08A7002A0846
:100F1800A6002908A5002808A4000130B207031874
:100F2800B30A0030B3073308803AFF0080307F02ED
:100F3800031DA02FFF303202031CA32FA42FB22FB2
:100F4800FF3083120313B2000030B3000030A70053
:100F58000030A6000030A5000030A400831203135F
:100F68003308803AFF0080307F02031DBD2F013017
:100F780032020318C02FC12FCE2F83120313B201E0
:100F8800B3010030A7000030A6000030A5000030F3
:100F9800A400B101831203133208A8002808B8007E
:100FA800381CD72FD82FDA2FA617DE2F7F30A800AE
:100FB8002808A6053808A8000310280CA900290845
:100FC800A7003108A8002808A704822E08000A12E2
:100FD8008A155C250A128A11F02F0A128A11102824
:020FE800FF34D4
:101A6A00F800F401F5017008F200F3017208F600BB
:101A7A007308F700781C422D432D492D7608F40788
:101A8A000318F50A7708F50701300310F60DF70D6C
:101A9A00FF3E031D4A2D0310F80C7808031D562D2E
:101AAA00572D3F2D7508F1007408F00008008316C1
:101ABA00031788018901831603138801831203130C
:101ACA0088012130831603138500831203138501CD
:101ADA00831603130F088F3940388F000F14071528
:101AEA003D3092008312031397013F309705170880
:101AFA00F0390C3897000F309500303097048C106D
:101B0A000330920412158C1C8B2D8C2D882D8C1071
:101B1A0083160313071118308700831203138701F2
:101B2A001408F03904389400141294168316031317
:101B3A0014179413831203138C11831603138C1531
:101B4A000B178B170800831203138C1DAD2DAE2DB6
:101B5A00ED2D130883160313AB002B08B200A50161
:101B6A00FF30AB002B08A6003E30A7000030A800CB
:101B7A007D30A9000030AA0032080A128A1594267C
:101B8A000A128A15831603132608B1002508B00025
:101B9A003108AC003008AB000310AC0CAB0C0310DE
:101BAA00AC0CAB0C2B08831203139500831603139A
:101BBA0030080339AB00AB0E8312031317088316E0
:101BCA0003132B06CF392B068312031397008C11AC
:101BDA00831603132F08FF002E088A002D0E830098
:101BEA00FE0E7E0E09000310831203136A0D6B0D9D
:101BFA0083160313A000200883120313ED006D0857
:101C0A00031D082E092E122E0030EB000030EA00C8
:101C1A000030E9000030E800932E680883160313A9
:101C2A00A00083120313690883160313A100831209
:101C3A0003136A0883160313A200831203136B08A3
:101C4A0083160313A3001F300310A30CA20CA10CCC
:101C5A00A00CFF3E031D292E2008A400240883128D
:101C6A000313EC00EA17FF30E805FF30E905FF30FF
:101C7A00EA050030EB059630ED02ED1F452E462EA3
:101C8A00642E6D08803A973E03184C2E4D2E4E2E28
:101C9A00092E01300310EB0CEA0CE90CE80CFF3EAC
:101CAA00031D4F2E013083160313A0002008831250
:101CBA000313ED07031D622E632E4E2E832E203052
:101CCA006D02031C692E6A2E7E2E092E01308316A0
:101CDA000313A000031083120313E80DE90DEA0DA4
:101CEA00EB0D83160313A00B6F2E0130831203131F
:101CFA00ED026D08031D822E832E6B2E6C080319CC
:101D0A00872E882E932EE809E909EA09EB09E80AE1
:101D1A000319E90A0319EA0A0319EB0A08008312EC
:101D2A000313EE00831603132708F0002808F100B6
:101D3A00F201F30100300A128A1546270A128A159F
:101D4A00730883120313DB007208DA007108D900E2
:101D5A007008D8008316031327082902F000280800
:101D6A00031C280A2A02F100F201F30100300A12C8
:101D7A008A1546270A128A15730883120313A700C5
:101D8A007208A6007108A5007008A4008316031340
:101D9A0025082602F000F101031CF103F201F11BF0
:101DAA00F2037208F30001300A128A1546270A1252
:101DBA008A15730883120313A3007208A20071081C
:101DCA00A1007008A0000A128A110E260A128A15AA
:101DDA00831203132308C1002208C0002108BF0090
:101DEA002008BE00831603132508831203136E020C
:101DFA00F000F101031CF103F201F11BF203720876
:101E0A00F30001300A128A1546270A128A15730846
:101E1A0083120313BD007208BC007108BB0070086E
:101E2A00BA000A128A1125200A128A15831203138C
:101E3A003D08D7003C08D6003B08D5003A08D40034
:101E4A000A128A1186230A128A1583120313570863
:101E5A00EB005608EA005508E9005408E8000A129F
:101E6A008A15F8250A128A1583120313690883163C
:101E7A000313A60083120313680883160313A5002D
:101E8A000800F800780803194B2F4C2F602FF31F16
:101E9A004F2F502F602F7009FA007109FB00720949
:101EAA00FC007309FD00FA0A0319FB0A0319FC0A6C
:101EBA000319FD0A682F7308FD007208FC007108F7
:101ECA00FB007008FA007308720471047004031DA1
:101EDA006F2F702F792F0030F3000030F20000309E
:101EEA00F1000030F000FF2F9630F4007408F9007A
:101EFA008B2F0130F4007408F90701300310FD0C30
:101F0A00FC0CFB0CFA0CFF3E031D832FFE307D05F3
:101F1A00031D902F912F7E2FAD2F0130F4007408EE
:101F2A00F9070130FA07003003180130FB070030C7
:101F3A0003180130FC07003003180130FD07013097
:101F4A000310FD0CFC0CFB0CFA0CFF3E031DA52F25
:101F5A00FF307D05031DB22FB32F922FBF2F013003
:101F6A00F9020130F4000310FA0DFB0DFC0DFD0D12
:101F7A00F40BB82FFC1BC22FC32FC92F02307902D2
:101F8A000318C82FC92FB42F7918CC2FCD2FD52FCE
:101F9A00FF30FA05FF30FB057F30FC05FF30FD05F9
:101FAA000310F90C7908F400F501F601F70118306D
:101FBA000310F40DF50DF60DF70DFF3E031DDD2F91
:101FCA007408FA047508FB047608FC047708FD0413
:101FDA0078080319F12FF22FF72FF31FF52FF62F99
:101FEA00F72FFD177D08F3007C08F2007B08F1004B
:061FFA007A08F000080067
:08400000FF3FFF3FFF3FFF3FC0
:04400E00D420FF3F7C
:00000001FF
