:060000000A128A110C280F
:10000800FE00030EF1000A08F2000A128A11A02865
:100018000A128A110F280A128A11C2200A128A119A
:10002800FA00F701F801F90183010A128A116E2812
:10003800013083160317880089018316031386018C
:100048008312031386018316031388018312031393
:100058008801013083160313850083120313850179
:10006800831603130F088F3940388F000F1483123B
:1000780003131F083F3940389F00831603131F12CC
:100088009F12C330831203139F05831603139F1314
:10009800831203131F140330F300F30B512810309D
:1000A800831603138700831203138701F030940526
:1000B8001412941683160313141794178312031338
:1000C80093018B170B17831603130C178312031353
:1000D8000C1308000A128A111C200A128A118312B2
:1000E80003139F18782879287A289F1485170430D5
:1000F800F5003D30F400F40B7F28F50B7F288428A9
:100108008312031385137708930083160313141CB3
:100118008E288F2889280230F6004530F500A9304E
:10012800F400F40B9528F50B9528F60B95289C28D8
:1001380073280A128A110C28831203138C1DA52810
:10014800A628A7288C110C1FAA28AB28BB281F0C8F
:10015800F000700C0F39003A031DB328B428BA28F0
:100168001E08F0007008F7001E0886000C137208BD
:0E0178008A00710E8300FE0E7E0E0900FF3419
:08400000FF3FFF3FFF3FFF3FC0
:04400E00D420FF3F7C
:00000001FF
