:060000000A128A110C280F
:10000800FE00030EF1000A08F2000A128A11A42861
:100018000A128A110F280A128A11C6200A128A1196
:10002800FA00F701F801F90183010A128A116E2812
:10003800013083160317880089018316031386018C
:100048008312031386018316031388018312031393
:100058008801013083160313850083120313850179
:10006800831603130F088F3940388F000F1483123B
:1000780003131F083F3940389F00831603131F12CC
:100088009F12C330831203139F05831603139F1314
:10009800831203131F140330F300F30B512810309D
:1000A800831603138700831203138701F030940526
:1000B8001412941683160313141794178312031338
:1000C80093018B170B17831603130C178312031353
:1000D8000C1308000A128A111C200A128A118312B2
:1000E80003139F18782879287A289F1485170430D5
:1000F800F5003D30F400F40B7F28F50B7F288428A9
:100108008312031385137708930083160313141CB3
:100118008E288F288928831203131308860002303B
:10012800F6004530F500A930F400F40B9928F50BDA
:100138009928F60B9928A02873280A128A110C28E6
:10014800831203138C1DA928AA28AB288C110C1F15
:10015800AE28AF28BF281F0CF000700C0F39003AEA
:10016800031DB728B828BE281E08F0007008F7003D
:100178001E0888000C1372088A00710E8300FE0E98
:060188007E0E0900FF34A9
:08400000FF3FFF3FFF3FFF3FC0
:04400E00D420FF3F7C
:00000001FF
