:060000000A128A110C280F
:10000800FE00030EF1000A08F2000A128A115128B4
:100018000A128A110F280A128A116E200A128A11EE
:10002800F500F301F40183010A128A116528831689
:1000380003178801890183160313860183120313AA
:100048008601831603138801831203138801213064
:100058008316031385008312031385018316031384
:100068000F088F3940388F000F141830870083121B
:10007800031387011408F0390438940014129416F5
:100088008316031314179413831203138C11831606
:1000980003138C150B178B170800831203138C1D81
:1000A800562857285E281308F0007008F3007308D4
:1000B80088008C1172088A00710E8300FE0E7E0E75
:1000C80009000A128A111B200A128A116A280A12C8
:0600D8008A110C28FF3420
:08400000FF3FFF3FFF3FFF3FC0
:04400E00D420FF3F7C
:00000001FF
