:060000000A128A110C280F
:10000800FE00030EF4000A08F5000A128A114F28B0
:100018000A128A110F28F001F101F20183010A1274
:100028008A11772883160317880189018316031319
:100038008801831203138801213083160313850076
:100048008312031385018316031306148614811380
:10005800151495140F088F3940388F000F14183075
:1000680087008312031387011408F03904389400B9
:10007800141294168316031314179413831203137C
:100088008C11831603138C150B178B178B151614ED
:1000980096140B100800831203138C1D542855283E
:1000A8005C281308F3007308F000710893008C11A2
:1000B8000B1C5F28602870280618632864286928A4
:1000C8000130F3007308F1076F2886186C286D2833
:1000D8006F280130F1020B1075088A00740E830036
:1000E800FE0E7E0E09000A128A1116200A128A11C3
:0800F8007C280A128A110C2871
:08400000FF3FFF3FFF3FFF3FC0
:04400E00D420FF3F7C
:00000001FF
