:060000000A128A110C280F
:10000800FE00030EF4000A08F5000A128A114928B6
:100018000A128A110F28F001F101F20183010A1274
:100028008A117128831603178801890120308316E5
:100038000313850083120313850183160313061423
:1000480086148113151495140F088F3940388F00C2
:100058000F14183087008312031387011408F0392E
:100068000438940014129416831603131417941367
:10007800831203138C11831603138C150B178B171C
:100088008B15161496140B100800831203138C1D7D
:100098004E284F2856281308F3007308F0007108FB
:1000A80093008C110B1C59285A286A2806185D28B9
:1000B8005E2863280130F3007308F1076928861861
:1000C8006628672869280130F1020B1075088A0034
:1000D800740E8300FE0E7E0E09000A128A11162085
:0C00E8000A128A1176280A128A110C28CC
:08400000FF3FFF3FFF3FFF3FC0
:04400E00D420FF3F7C
:00000001FF
