:060000000A128A110C280F
:10000800FE00030EF1000A08F2000A128A115428B1
:100018000A128A110F280A128A1187200A128A11D5
:10002800F500F301F40183010A128A117E28831670
:1000380003178801890183160313880183120313A8
:100048008801213083160313850083120313850169
:1000580083160313061486148113151495140F08B8
:100068008F3940388F000F1418308700831203131C
:1000780087011408F0390438940014129416831672
:10008800031314179413831203138C118316031389
:100098008C150B178B178B15161496140B1008005C
:1000A800831203138C1D59285A2863281308F0005B
:1000B8007008F30073088800740893008C110B1CF7
:1000C80066286728772806186A286B287028013060
:1000D800F0007008F40776288618732874287628A4
:1000E8000130F4020B1072088A00710E8300FE0EB4
:1000F8007E0E09000A128A111B200A128A1183280F
:080108000A128A110C28FF34D1
:08400000FF3FFF3FFF3FFF3FC0
:04400E00D420FF3F7C
:00000001FF
